S0150000547269666669632074696D65722E7372656307
S11300000C942A000C9447000C9447000C9447006D
S11300100C9447000C9447000C9447000C94470040
S11300200C9447000C9447000C949B050C944700D7
S11300300C9447000C9447000C9447000C94470020
S11300400C9447000C9447000C9447000C94470010
S11300500C94470011241FBECFE5D8E0DEBFCDBF0E
S113006010E0A0E6B0E0E0E8FBE002C005900D92ED
S1130070AC39B107D9F710E0ACE9B0E001C01D928A
S1130080AE39B107E1F70E94A2040C94BE050C94AA
S11300900000843409F471C0853448F4823499F141
S11300A0833408F04DC0813409F083C00FC0823618
S11300B051F1833620F4813609F07BC007C08336C2
S11300C009F43EC0843609F074C057C0413069F465
S11300D02AB381E090E0AC0102C0440F551F6A9539
S11300E0E2F7BA01622B6ABB08952AB381E090E07B
S11300F0AC0102C0440F551F6A95E2F7BA0160953E
S113010062236ABB0895413069F427B381E090E02B
S1130110AC0102C0440F551F6A95E2F7BA01622B85
S113012067BB089527B381E090E0AC0102C0440F9F
S1130130551F6A95E2F7BA016095622367BB08957B
S1130140413069F424B381E090E0AC0102C0440F73
S1130150551F6A95E2F7BA01622B64BB089524B374
S113016081E090E0AC0102C0440F551F6A95E2F7AC
S1130170BA016095622364BB0895413069F421B3E8
S113018081E090E0AC0102C0440F551F6A95E2F78C
S1130190BA01622B61BB089521B381E090E0AC0108
S11301A002C0440F551F6A95E2F7BA0160956223B5
S11301B061BB0895843409F471C0853448F48234F1
S11301C099F1833408F04DC0813409F083C00FC025
S11301D0823651F1833620F4813609F07BC007C0A2
S11301E0833609F43EC0843609F074C057C04130E8
S11301F069F42BB381E090E0AC0102C0440F551FB9
S11302006A95E2F7BA01622B6BBB08952BB381E0C8
S113021090E0AC0102C0440F551F6A95E2F7BA01A1
S1130220609562236BBB0895413069F428B381E083
S113023090E0AC0102C0440F551F6A95E2F7BA0181
S1130240622B68BB089528B381E090E0AC0102C042
S1130250440F551F6A95E2F7BA016095622368BBA3
S11302600895413069F425B381E090E0AC0102C007
S1130270440F551F6A95E2F7BA01622B65BB0895D6
S113028025B381E090E0AC0102C0440F551F6A958C
S1130290E2F7BA016095622365BB0895413069F4C1
S11302A022B381E090E0AC0102C0440F551F6A956F
S11302B0E2F7BA01622B62BB089522B381E090E0B9
S11302C0AC0102C0440F551F6A95E2F7BA0160956C
S11302D0622362BB0895843409F43DC0853440F43C
S11302E08234F9F0833450F5813409F040C00CC0F5
S11302F08236B9F0833618F48136C9F505C08336E1
S1130300E9F08436A1F527C02BB381E090E0AC017D
S113031002C0440F551F6A95E2F7BA0162276BBB0E
S1130320089528B381E090E0AC0102C0440F551F4A
S11303306A95E2F7BA01622768BB089525B381E0A4
S113034090E0AC0102C0440F551F6A95E2F7BA0170
S1130350622765BB089522B381E090E0AC0102C03E
S1130360440F551F6A95E2F7BA01622762BB0895EC
S1130370843409F44EC0853440F4823431F183343A
S1130380B0F5813409F057C00EC08236F1F08336DF
S113039020F4813609F04FC006C0833641F184361B
S11303A009F049C036C029B381E090E0062E02C0AE
S11303B0880F991F0A94E2F730E08223932302C046
S11303C0959587956A95E2F7089526B381E090E0C4
S11303D0062E02C0880F991F0A94E2F730E08223A8
S11303E0932302C0959587956A95E2F7089523B300
S11303F081E090E0062E02C0880F991F0A94E2F76C
S113040030E08223932302C0959587956A95E2F79D
S1130410089520B381E090E0062E02C0880F991F52
S11304200A94E2F730E08223932302C095958795DE
S11304306A95E2F7089508958434D9F0853438F440
S1130440823499F0833498F48134A1F40CC0823658
S113045061F0833618F4813669F405C0833639F0C7
S1130460843641F406C06ABB089567BB089564BB33
S1130470089561BB08958434D9F0853438F4823406
S113048099F0833498F48134A1F40CC0823661F07D
S1130490833618F4813669F405C0833639F084361E
S11304A041F406C06BBB089568BB089565BB08950D
S11304B062BB08958434D9F0853438F4823499F0D9
S11304C0833498F48134A1F40CC0823661F083360D
S11304D018F4813669F405C0833639F0843641F462
S11304E006C089B3089586B3089583B3089580B38D
S11304F00895843409F1853438F48234A9F08334BE
S1130500B8F48134E1F40CC0823671F0833618F407
S11305108136A9F405C0833659F0843681F40CC0C1
S11305208BB380958BBB089588B3809588BB089561
S113053085B3809585BB089582B3809582BB089569
S1130540843409F471C0853448F4823499F18334D5
S113055008F04DC0813409F083C00FC0823651F1D8
S1130560833620F4813609F07BC007C0833609F452
S11305703EC0843609F074C057C0413069F42BB3CF
S113058081E090E0AC0102C0440F551F6A95E2F788
S1130590BA01622B6BBB08952BB381E090E0AC01F0
S11305A002C0440F551F6A95E2F7BA0160956223B1
S11305B06BBB0895413069F428B381E090E0AC014D
S11305C002C0440F551F6A95E2F7BA01622B68BB5B
S11305D0089528B381E090E0AC0102C0440F551F98
S11305E06A95E2F7BA016095622368BB08954130C9
S11305F069F425B381E090E0AC0102C0440F551FBB
S11306006A95E2F7BA01622B65BB089525B381E0D0
S113061090E0AC0102C0440F551F6A95E2F7BA019D
S11306206095622365BB0895413069F422B381E08B
S113063090E0AC0102C0440F551F6A95E2F7BA017D
S1130640622B62BB089522B381E090E0AC0102C04A
S1130650440F551F6A95E2F7BA016095622362BBA5
S113066008950F931F93CF93C82F062F462F4170E1
S113067060E00E94DA0010E0A801427050705595C5
S113068047958C2F61E00E94DA00A80144705070F5
S113069055954795559547958C2F62E00E94DA0051
S11306A008701070A801559547955595479555952F
S11306B047958C2F63E00E94DA00CF911F910F9130
S11306C008950F931F93CF93DF93C82FD62F062F30
S11306D010E0A80140715070559547955595479580
S11306E0559547955595479564E00E94DA00A80111
S11306F04072507055954795559547955595479532
S113070055954795559547958C2F65E00E94DA00DD
S113071000741070A801042E452F000C441F550BC3
S1130720000C441F551F8C2F66E00E94DA004D2FE9
S1130730441F4427441F8C2F67E00E94DA00DF9196
S1130740CF911F910F91089582E460E041E00E94EF
S1130750DA008FE99FE00197F1F700C0000082E41E
S113076060E040E00E94DA008FE99FE00197F1F732
S113077000C000000895682F81E40E943B0282E4D7
S113078062E041E00E94DA000E94A4030895682F09
S113079081E40E943B0282E462E040E00E94DA00CD
S11307A00E94A4038FEC97E00197F1F700C00000CA
S11307B008958FEF91EEA4E081509040A040E1F7BE
S11307C000C0000081E460E041E00E94490081E44F
S11307D061E041E00E94490081E462E041E00E945E
S11307E0490081E463E041E00E94490081E464E05F
S11307F041E00E94490081E465E041E00E94490033
S113080081E466E041E00E94490081E467E041E060
S11308100E94490082E460E041E00E94490082E4D1
S113082062E041E00E94490082E461E041E00E940C
S1130830490082E461E040E00E94DA0082E00E9424
S1130840C703AFE1BEE41197F1F700C0000088E3ED
S11308500E94C7038FEC97E00197F1F700C00000F6
S11308608CE00E94C703AFECB7E01197F1F700C02A
S113087000008FEC97E00197F1F700C0000086E0DC
S11308800E94C703AFECB7E01197F1F700C0000076
S1130890089581E00E94C7038FE19EE40197F1F778
S11308A000C000000895CF93DF93EC018881882372
S11308B031F021960E94BB0389918823D9F7DF91F7
S11308C0CF910895282F2150223070F4613170F4B3
S11308D0662371F0813019F4962F91580AC0823042
S11308E041F4962F915405C090E803C090E801C0EC
S11308F090E8892F0E94C7038FEC97E00197F1F7E6
S113090000C00000089541E00E944900089541E0BC
S11309100E94DA00089540E00E94DA0008950E94DF
S11309206B010895789483B7816083BF83B7846033
S113093083BF83B7886083BF80E58CBF89B782603B
S113094089BF08950E94D90384E660E00E9483046D
S113095084E661E00E94830484E662E00E948304EA
S113096081E065E00E94620480E690E00E94530406
S113097082E062E00E94620488E690E00E945304F0
S11309808FEF94E3ACE081509040A040E1F700C0C9
S113099000000E9449040E949204D8E2CAE006E7DB
S11309A010E00F2EF7E8EF2EF0E0FF2EF02DD0939D
S11309B09A00C0939900D09398000E944904C801FA
S11309C00E94530484E660E00E94870427C080915B
S11309D09C0090919D0082339105C8F310929D0074
S11309E010929C00215020939A0081E06BE00E94B9
S11309F0620480919A006C2F0E94B205805D0E946F
S1130A00BB0381E06CE00E94620480919A006C2F29
S1130A100E94B205892F805D0E94BB0320919A0039
S1130A202223A9F68FEF92E5A7E081509040A040E1
S1130A30E1F700C0000084E661E00E94870484E6D8
S1130A4060E00E948B040E944904C7010E94530481
S1130A501EC080919C0090919D0082339105C8F343
S1130A6010929D0010929C0021502093990081E0E7
S1130A706BE00E94620480E20E94BB0380919900B3
S1130A806C2F0E94B205892F805D0E94BB032091C8
S1130A9099002223F1F68FEF92E5A7E08150904070
S1130AA0A040E1F700C0000084E662E00E948704F1
S1130AB084E661E00E948B040E944904C8010E94FC
S1130AC0530427C080919C0090919D00823391052E
S1130AD0C8F310929D0010929C002150209398001E
S1130AE081E06BE00E946204809198006C2F0E9468
S1130AF0B205805D0E94BB0381E06CE00E94620449
S1130B00809198006C2F0E94B205892F805D0E940D
S1130B10BB03209198002223A9F68FEF93ECA9E060
S1130B2081509040A040E1F700C0000084E662E0FC
S1130B300E948B043CCF1F920F920FB60F92112488
S1130B408F939F9380919C0090919D000196909328
S1130B509D0080939C009F918F910F900FBE0F90EA
S1130B601F901895991B79E004C0991F961708F0F7
S1130B70961B881F7A95C9F780950895F894FFCF3E
S1130B8057656C636F6D6500747261666669632096
S1130B906C696768740072656D61696E696E67205F
S1130BA03430207365630072656D61696E696E67C8
S10F0BB02031302073656300280A2800FF
S9030000FC
